{
  "_format": "hh-sol-artifact-1",
  "contractName": "MyEpicNFT",
  "sourceName": "contracts/MyEpicNFT.sol",
  "abi": [
    {
      "inputs": [
        {
          "internalType": "uint256",
          "name": "_totalSupply",
          "type": "uint256"
        }
      ],
      "stateMutability": "nonpayable",
      "type": "constructor"
    },
    {
      "anonymous": false,
      "inputs": [
        {
          "indexed": true,
          "internalType": "address",
          "name": "owner",
          "type": "address"
        },
        {
          "indexed": true,
          "internalType": "address",
          "name": "approved",
          "type": "address"
        },
        {
          "indexed": true,
          "internalType": "uint256",
          "name": "tokenId",
          "type": "uint256"
        }
      ],
      "name": "Approval",
      "type": "event"
    },
    {
      "anonymous": false,
      "inputs": [
        {
          "indexed": true,
          "internalType": "address",
          "name": "owner",
          "type": "address"
        },
        {
          "indexed": true,
          "internalType": "address",
          "name": "operator",
          "type": "address"
        },
        {
          "indexed": false,
          "internalType": "bool",
          "name": "approved",
          "type": "bool"
        }
      ],
      "name": "ApprovalForAll",
      "type": "event"
    },
    {
      "anonymous": false,
      "inputs": [
        {
          "indexed": false,
          "internalType": "address",
          "name": "sender",
          "type": "address"
        },
        {
          "indexed": false,
          "internalType": "uint256",
          "name": "tokenId",
          "type": "uint256"
        }
      ],
      "name": "NewEpicNFTMinted",
      "type": "event"
    },
    {
      "anonymous": false,
      "inputs": [
        {
          "indexed": true,
          "internalType": "address",
          "name": "from",
          "type": "address"
        },
        {
          "indexed": true,
          "internalType": "address",
          "name": "to",
          "type": "address"
        },
        {
          "indexed": true,
          "internalType": "uint256",
          "name": "tokenId",
          "type": "uint256"
        }
      ],
      "name": "Transfer",
      "type": "event"
    },
    {
      "inputs": [
        {
          "internalType": "address",
          "name": "to",
          "type": "address"
        },
        {
          "internalType": "uint256",
          "name": "tokenId",
          "type": "uint256"
        }
      ],
      "name": "approve",
      "outputs": [],
      "stateMutability": "nonpayable",
      "type": "function"
    },
    {
      "inputs": [
        {
          "internalType": "address",
          "name": "owner",
          "type": "address"
        }
      ],
      "name": "balanceOf",
      "outputs": [
        {
          "internalType": "uint256",
          "name": "",
          "type": "uint256"
        }
      ],
      "stateMutability": "view",
      "type": "function"
    },
    {
      "inputs": [
        {
          "internalType": "string",
          "name": "phrase",
          "type": "string"
        }
      ],
      "name": "generateSvg",
      "outputs": [
        {
          "internalType": "string",
          "name": "",
          "type": "string"
        }
      ],
      "stateMutability": "pure",
      "type": "function"
    },
    {
      "inputs": [
        {
          "internalType": "uint256",
          "name": "tokenId",
          "type": "uint256"
        }
      ],
      "name": "getApproved",
      "outputs": [
        {
          "internalType": "address",
          "name": "",
          "type": "address"
        }
      ],
      "stateMutability": "view",
      "type": "function"
    },
    {
      "inputs": [],
      "name": "getCurrentTokenId",
      "outputs": [
        {
          "internalType": "uint256",
          "name": "",
          "type": "uint256"
        }
      ],
      "stateMutability": "view",
      "type": "function"
    },
    {
      "inputs": [],
      "name": "getMaxTokenSupply",
      "outputs": [
        {
          "internalType": "uint256",
          "name": "",
          "type": "uint256"
        }
      ],
      "stateMutability": "view",
      "type": "function"
    },
    {
      "inputs": [
        {
          "internalType": "uint256",
          "name": "_randNonce",
          "type": "uint256"
        }
      ],
      "name": "getRandomPhrase",
      "outputs": [
        {
          "internalType": "string",
          "name": "",
          "type": "string"
        }
      ],
      "stateMutability": "view",
      "type": "function"
    },
    {
      "inputs": [
        {
          "internalType": "address",
          "name": "owner",
          "type": "address"
        },
        {
          "internalType": "address",
          "name": "operator",
          "type": "address"
        }
      ],
      "name": "isApprovedForAll",
      "outputs": [
        {
          "internalType": "bool",
          "name": "",
          "type": "bool"
        }
      ],
      "stateMutability": "view",
      "type": "function"
    },
    {
      "inputs": [],
      "name": "makeAnEpicNFT",
      "outputs": [],
      "stateMutability": "nonpayable",
      "type": "function"
    },
    {
      "inputs": [],
      "name": "name",
      "outputs": [
        {
          "internalType": "string",
          "name": "",
          "type": "string"
        }
      ],
      "stateMutability": "view",
      "type": "function"
    },
    {
      "inputs": [
        {
          "internalType": "uint256",
          "name": "tokenId",
          "type": "uint256"
        }
      ],
      "name": "ownerOf",
      "outputs": [
        {
          "internalType": "address",
          "name": "",
          "type": "address"
        }
      ],
      "stateMutability": "view",
      "type": "function"
    },
    {
      "inputs": [
        {
          "internalType": "address",
          "name": "from",
          "type": "address"
        },
        {
          "internalType": "address",
          "name": "to",
          "type": "address"
        },
        {
          "internalType": "uint256",
          "name": "tokenId",
          "type": "uint256"
        }
      ],
      "name": "safeTransferFrom",
      "outputs": [],
      "stateMutability": "nonpayable",
      "type": "function"
    },
    {
      "inputs": [
        {
          "internalType": "address",
          "name": "from",
          "type": "address"
        },
        {
          "internalType": "address",
          "name": "to",
          "type": "address"
        },
        {
          "internalType": "uint256",
          "name": "tokenId",
          "type": "uint256"
        },
        {
          "internalType": "bytes",
          "name": "_data",
          "type": "bytes"
        }
      ],
      "name": "safeTransferFrom",
      "outputs": [],
      "stateMutability": "nonpayable",
      "type": "function"
    },
    {
      "inputs": [
        {
          "internalType": "address",
          "name": "operator",
          "type": "address"
        },
        {
          "internalType": "bool",
          "name": "approved",
          "type": "bool"
        }
      ],
      "name": "setApprovalForAll",
      "outputs": [],
      "stateMutability": "nonpayable",
      "type": "function"
    },
    {
      "inputs": [
        {
          "internalType": "bytes4",
          "name": "interfaceId",
          "type": "bytes4"
        }
      ],
      "name": "supportsInterface",
      "outputs": [
        {
          "internalType": "bool",
          "name": "",
          "type": "bool"
        }
      ],
      "stateMutability": "view",
      "type": "function"
    },
    {
      "inputs": [],
      "name": "symbol",
      "outputs": [
        {
          "internalType": "string",
          "name": "",
          "type": "string"
        }
      ],
      "stateMutability": "view",
      "type": "function"
    },
    {
      "inputs": [
        {
          "internalType": "uint256",
          "name": "tokenId",
          "type": "uint256"
        }
      ],
      "name": "tokenURI",
      "outputs": [
        {
          "internalType": "string",
          "name": "",
          "type": "string"
        }
      ],
      "stateMutability": "view",
      "type": "function"
    },
    {
      "inputs": [
        {
          "internalType": "address",
          "name": "from",
          "type": "address"
        },
        {
          "internalType": "address",
          "name": "to",
          "type": "address"
        },
        {
          "internalType": "uint256",
          "name": "tokenId",
          "type": "uint256"
        }
      ],
      "name": "transferFrom",
      "outputs": [],
      "stateMutability": "nonpayable",
      "type": "function"
    }
  ],
  "bytecode": "0x6080604052604051806102a001604052806040518060400160405280600581526020017f4d696e747900000000000000000000000000000000000000000000000000000081525081526020016040518060400160405280600681526020017f466c69727479000000000000000000000000000000000000000000000000000081525081526020016040518060400160405280600681526020017f536d656c6c79000000000000000000000000000000000000000000000000000081525081526020016040518060400160405280600881526020017f436f6c6f7266756c00000000000000000000000000000000000000000000000081525081526020016040518060400160405280600781526020017f426c75727265640000000000000000000000000000000000000000000000000081525081526020016040518060400160405280600981526020017f46616e746173746963000000000000000000000000000000000000000000000081525081526020016040518060400160405280600481526020017f436c61640000000000000000000000000000000000000000000000000000000081525081526020016040518060400160405280600881526020017f467275697466756c00000000000000000000000000000000000000000000000081525081526020016040518060400160405280600881526020017f476c6f72696f757300000000000000000000000000000000000000000000000081525081526020016040518060400160405280600781526020017f5a65737466756c0000000000000000000000000000000000000000000000000081525081526020016040518060400160405280600581526020017f46616e637900000000000000000000000000000000000000000000000000000081525081526020016040518060400160405280600681526020017f416369646963000000000000000000000000000000000000000000000000000081525081526020016040518060400160405280600681526020017f46726f737479000000000000000000000000000000000000000000000000000081525081526020016040518060400160405280600581526020017f526f636b7900000000000000000000000000000000000000000000000000000081525081526020016040518060400160405280600581526020017f4a6f6c6c7900000000000000000000000000000000000000000000000000000081525081526020016040518060400160405280600a81526020017f4170706c696361626c650000000000000000000000000000000000000000000081525081526020016040518060400160405280600781526020017f5175696c7465640000000000000000000000000000000000000000000000000081525081526020016040518060400160405280600581526020017f46757a7a7900000000000000000000000000000000000000000000000000000081525081526020016040518060400160405280600581526020017f526162696400000000000000000000000000000000000000000000000000000081525081526020016040518060400160405280600581526020017f467572727900000000000000000000000000000000000000000000000000000081525081526020016040518060400160405280600981526020017f476c616d6f726f757300000000000000000000000000000000000000000000008152508152506007906015620004f7929190620012b0565b506040518061030001604052806040518060400160405280600381526020017f526564000000000000000000000000000000000000000000000000000000000081525081526020016040518060400160405280600481526020017f426c75650000000000000000000000000000000000000000000000000000000081525081526020016040518060400160405280600581526020017f477265656e00000000000000000000000000000000000000000000000000000081525081526020016040518060400160405280600681526020017f59656c6c6f77000000000000000000000000000000000000000000000000000081525081526020016040518060400160405280600681526020017f507572706c65000000000000000000000000000000000000000000000000000081525081526020016040518060400160405280600681526020017f4f72616e6765000000000000000000000000000000000000000000000000000081525081526020016040518060400160405280600481526020017f50696e6b0000000000000000000000000000000000000000000000000000000081525081526020016040518060400160405280600581526020017f42726f776e00000000000000000000000000000000000000000000000000000081525081526020016040518060400160405280600581526020017f576869746500000000000000000000000000000000000000000000000000000081525081526020016040518060400160405280600581526020017f426c61636b00000000000000000000000000000000000000000000000000000081525081526020016040518060400160405280600481526020017f476f6c640000000000000000000000000000000000000000000000000000000081525081526020016040518060400160405280600681526020017f53696c766572000000000000000000000000000000000000000000000000000081525081526020016040518060400160405280600681526020017f42726f6e7a65000000000000000000000000000000000000000000000000000081525081526020016040518060400160405280600681526020017f53696c766572000000000000000000000000000000000000000000000000000081525081526020016040518060400160405280600681526020017f436f70706572000000000000000000000000000000000000000000000000000081525081526020016040518060400160405280600881526020017f506c6174696e756d00000000000000000000000000000000000000000000000081525081526020016040518060400160405280600481526020017f49726f6e0000000000000000000000000000000000000000000000000000000081525081526020016040518060400160405280600581526020017f537465656c00000000000000000000000000000000000000000000000000000081525081526020016040518060400160405280600881526020017f546974616e69756d00000000000000000000000000000000000000000000000081525081526020016040518060400160405280600981526020017f54757271756f697365000000000000000000000000000000000000000000000081525081526020016040518060400160405280600781526020017f456d6572616c640000000000000000000000000000000000000000000000000081525081526020016040518060400160405280600581526020017f436f72616c00000000000000000000000000000000000000000000000000000081525081526020016040518060400160405280600481526020017f527562790000000000000000000000000000000000000000000000000000000081525081526020016040518060400160405280600881526020017f5361707068697265000000000000000000000000000000000000000000000000815250815250600890601862000a9c92919062001317565b506040518061034001604052806040518060400160405280600381526020017f437570000000000000000000000000000000000000000000000000000000000081525081526020016040518060400160405280600481526020017f43616b650000000000000000000000000000000000000000000000000000000081525081526020016040518060400160405280600581526020017f43616e647900000000000000000000000000000000000000000000000000000081525081526020016040518060400160405280600681526020017f436f6f6b6965000000000000000000000000000000000000000000000000000081525081526020016040518060400160405280600681526020017f47657262696c000000000000000000000000000000000000000000000000000081525081526020016040518060400160405280600581526020017f536b756e6b00000000000000000000000000000000000000000000000000000081525081526020016040518060400160405280600481526020017f426c6f620000000000000000000000000000000000000000000000000000000081525081526020016040518060400160405280600781526020017f556e69636f726e0000000000000000000000000000000000000000000000000081525081526020016040518060400160405280600581526020017f47686f737400000000000000000000000000000000000000000000000000000081525081526020016040518060400160405280600581526020017f5a6562726100000000000000000000000000000000000000000000000000000081525081526020016040518060400160405280600381526020017f506967000000000000000000000000000000000000000000000000000000000081525081526020016040518060400160405280600581526020017f486f72736500000000000000000000000000000000000000000000000000000081525081526020016040518060400160405280600381526020017f436f77000000000000000000000000000000000000000000000000000000000081525081526020016040518060400160405280600581526020017f536865657000000000000000000000000000000000000000000000000000000081525081526020016040518060400160405280600481526020017f476f61740000000000000000000000000000000000000000000000000000000081525081526020016040518060400160405280600481526020017f4c616d620000000000000000000000000000000000000000000000000000000081525081526020016040518060400160405280600681526020017f5069676c6574000000000000000000000000000000000000000000000000000081525081526020016040518060400160405280600581526020017f507570707900000000000000000000000000000000000000000000000000000081525081526020016040518060400160405280600681526020017f4b697474656e000000000000000000000000000000000000000000000000000081525081526020016040518060400160405280600681526020017f447261676f6e000000000000000000000000000000000000000000000000000081525081526020016040518060400160405280600581526020017f4561676c6500000000000000000000000000000000000000000000000000000081525081526020016040518060400160405280600381526020017f4f776c000000000000000000000000000000000000000000000000000000000081525081526020016040518060400160405280600681526020017f4d7570706574000000000000000000000000000000000000000000000000000081525081526020016040518060400160405280600481526020017f506f6e790000000000000000000000000000000000000000000000000000000081525081526020016040518060400160405280600681526020017f506967656f6e000000000000000000000000000000000000000000000000000081525081526020016040518060400160405280600581526020017f536b756e6b000000000000000000000000000000000000000000000000000000815250815250600990601a620010b79291906200137e565b50348015620010c557600080fd5b50604051620052e6380380620052e68339818101604052810190620010eb919062001543565b6040518060400160405280600981526020017f5371756172654e465400000000000000000000000000000000000000000000008152506040518060400160405280600681526020017f535155415245000000000000000000000000000000000000000000000000000081525081600090805190602001906200116f929190620013e5565b50806001908051906020019062001188929190620013e5565b505050620011d66040518060400160405280601d81526020017f54686973206973206d79204e465420736d61727420636f6e7472616374000000815250620011e460201b620011d41760201c565b80600b8190555050620016a2565b6200128481604051602401620011fb919062001619565b6040516020818303038152906040527f41304fac000000000000000000000000000000000000000000000000000000007bffffffffffffffffffffffffffffffffffffffffffffffffffffffff19166020820180517bffffffffffffffffffffffffffffffffffffffffffffffffffffffff83818316178352505050506200128760201b60201c565b50565b60008151905060006a636f6e736f6c652e6c6f679050602083016000808483855afa5050505050565b82805482825590600052602060002090810192821562001304579160200282015b8281111562001303578251829080519060200190620012f2929190620013e5565b5091602001919060010190620012d1565b5b50905062001313919062001476565b5090565b8280548282559060005260206000209081019282156200136b579160200282015b828111156200136a57825182908051906020019062001359929190620013e5565b509160200191906001019062001338565b5b5090506200137a919062001476565b5090565b828054828255906000526020600020908101928215620013d2579160200282015b82811115620013d1578251829080519060200190620013c0929190620013e5565b50916020019190600101906200139f565b5b509050620013e1919062001476565b5090565b828054620013f3906200166c565b90600052602060002090601f01602090048101928262001417576000855562001463565b82601f106200143257805160ff191683800117855562001463565b8280016001018555821562001463579182015b828111156200146257825182559160200191906001019062001445565b5b5090506200147291906200149e565b5090565b5b808211156200149a5760008181620014909190620014bd565b5060010162001477565b5090565b5b80821115620014b95760008160009055506001016200149f565b5090565b508054620014cb906200166c565b6000825580601f10620014df575062001500565b601f016020900490600052602060002090810190620014ff91906200149e565b5b50565b600080fd5b6000819050919050565b6200151d8162001508565b81146200152957600080fd5b50565b6000815190506200153d8162001512565b92915050565b6000602082840312156200155c576200155b62001503565b5b60006200156c848285016200152c565b91505092915050565b600081519050919050565b600082825260208201905092915050565b60005b83811015620015b157808201518184015260208101905062001594565b83811115620015c1576000848401525b50505050565b6000601f19601f8301169050919050565b6000620015e58262001575565b620015f1818562001580565b93506200160381856020860162001591565b6200160e81620015c7565b840191505092915050565b60006020820190508181036000830152620016358184620015d8565b905092915050565b7f4e487b7100000000000000000000000000000000000000000000000000000000600052602260045260246000fd5b600060028204905060018216806200168557607f821691505b602082108114156200169c576200169b6200163d565b5b50919050565b613c3480620016b26000396000f3fe608060405234801561001057600080fd5b50600436106101165760003560e01c80636352211e116100a2578063b88d4fde11610071578063b88d4fde146102f3578063c87b56dd1461030f578063de9d132f1461033f578063e985e9c514610349578063f18595731461037957610116565b80636352211e1461025957806370a082311461028957806395d89b41146102b9578063a22cb465146102d757610116565b806323b872dd116100e957806323b872dd146101b557806342842e0e146101d15780634cdf9448146101ed578063561892361461020b5780635d2b1df61461022957610116565b806301ffc9a71461011b57806306fdde031461014b578063081812fc14610169578063095ea7b314610199575b600080fd5b61013560048036038101906101309190612391565b6103a9565b60405161014291906123d9565b60405180910390f35b61015361048b565b604051610160919061248d565b60405180910390f35b610183600480360381019061017e91906124e5565b61051d565b6040516101909190612553565b60405180910390f35b6101b360048036038101906101ae919061259a565b6105a2565b005b6101cf60048036038101906101ca91906125da565b6106ba565b005b6101eb60048036038101906101e691906125da565b61071a565b005b6101f561073a565b604051610202919061263c565b60405180910390f35b610213610744565b604051610220919061263c565b60405180910390f35b610243600480360381019061023e919061278c565b610755565b604051610250919061248d565b60405180910390f35b610273600480360381019061026e91906124e5565b6107de565b6040516102809190612553565b60405180910390f35b6102a3600480360381019061029e91906127d5565b610890565b6040516102b0919061263c565b60405180910390f35b6102c1610948565b6040516102ce919061248d565b60405180910390f35b6102f160048036038101906102ec919061282e565b6109da565b005b61030d6004803603810190610308919061290f565b6109f0565b005b610329600480360381019061032491906124e5565b610a52565b604051610336919061248d565b60405180910390f35b610347610ba4565b005b610363600480360381019061035e9190612992565b610e52565b60405161037091906123d9565b60405180910390f35b610393600480360381019061038e91906124e5565b610ee6565b6040516103a0919061248d565b60405180910390f35b60007f80ac58cd000000000000000000000000000000000000000000000000000000007bffffffffffffffffffffffffffffffffffffffffffffffffffffffff1916827bffffffffffffffffffffffffffffffffffffffffffffffffffffffff1916148061047457507f5b5e139f000000000000000000000000000000000000000000000000000000007bffffffffffffffffffffffffffffffffffffffffffffffffffffffff1916827bffffffffffffffffffffffffffffffffffffffffffffffffffffffff1916145b8061048457506104838261126d565b5b9050919050565b60606000805461049a90612a01565b80601f01602080910402602001604051908101604052809291908181526020018280546104c690612a01565b80156105135780601f106104e857610100808354040283529160200191610513565b820191906000526020600020905b8154815290600101906020018083116104f657829003601f168201915b5050505050905090565b6000610528826112d7565b610567576040517f08c379a000000000000000000000000000000000000000000000000000000000815260040161055e90612aa5565b60405180910390fd5b6004600083815260200190815260200160002060009054906101000a900473ffffffffffffffffffffffffffffffffffffffff169050919050565b60006105ad826107de565b90508073ffffffffffffffffffffffffffffffffffffffff168373ffffffffffffffffffffffffffffffffffffffff16141561061e576040517f08c379a000000000000000000000000000000000000000000000000000000000815260040161061590612b37565b60405180910390fd5b8073ffffffffffffffffffffffffffffffffffffffff1661063d611343565b73ffffffffffffffffffffffffffffffffffffffff16148061066c575061066b81610666611343565b610e52565b5b6106ab576040517f08c379a00000000000000000000000000000000000000000000000000000000081526004016106a290612bc9565b60405180910390fd5b6106b5838361134b565b505050565b6106cb6106c5611343565b82611404565b61070a576040517f08c379a000000000000000000000000000000000000000000000000000000000815260040161070190612c5b565b60405180910390fd5b6107158383836114e2565b505050565b610735838383604051806020016040528060008152506109f0565b505050565b6000600b54905090565b6000610750600a61173e565b905090565b6060600060405180610160016040528061012f8152602001613ad061012f9139905060006040518060400160405280600d81526020017f3c2f746578743e3c2f7376673e0000000000000000000000000000000000000081525090508184826040516020016107c693929190612cb7565b60405160208183030381529060405292505050919050565b6000806002600084815260200190815260200160002060009054906101000a900473ffffffffffffffffffffffffffffffffffffffff169050600073ffffffffffffffffffffffffffffffffffffffff168173ffffffffffffffffffffffffffffffffffffffff161415610887576040517f08c379a000000000000000000000000000000000000000000000000000000000815260040161087e90612d5a565b60405180910390fd5b80915050919050565b60008073ffffffffffffffffffffffffffffffffffffffff168273ffffffffffffffffffffffffffffffffffffffff161415610901576040517f08c379a00000000000000000000000000000000000000000000000000000000081526004016108f890612dec565b60405180910390fd5b600360008373ffffffffffffffffffffffffffffffffffffffff1673ffffffffffffffffffffffffffffffffffffffff168152602001908152602001600020549050919050565b60606001805461095790612a01565b80601f016020809104026020016040519081016040528092919081815260200182805461098390612a01565b80156109d05780601f106109a5576101008083540402835291602001916109d0565b820191906000526020600020905b8154815290600101906020018083116109b357829003601f168201915b5050505050905090565b6109ec6109e5611343565b838361174c565b5050565b610a016109fb611343565b83611404565b610a40576040517f08c379a0000000000000000000000000000000000000000000000000000000008152600401610a3790612c5b565b60405180910390fd5b610a4c848484846118b9565b50505050565b6060610a5d826112d7565b610a9c576040517f08c379a0000000000000000000000000000000000000000000000000000000008152600401610a9390612e7e565b60405180910390fd5b6000600660008481526020019081526020016000208054610abc90612a01565b80601f0160208091040260200160405190810160405280929190818152602001828054610ae890612a01565b8015610b355780601f10610b0a57610100808354040283529160200191610b35565b820191906000526020600020905b815481529060010190602001808311610b1857829003601f168201915b505050505090506000610b46611915565b9050600081511415610b5c578192505050610b9f565b600082511115610b91578082604051602001610b79929190612e9e565b60405160208183030381529060405292505050610b9f565b610b9a8461192c565b925050505b919050565b6000610bb0600a61173e565b9050600b548110610bf6576040517f08c379a0000000000000000000000000000000000000000000000000000000008152600401610bed90612f0e565b60405180910390fd5b610c0033826119d3565b6000610c0b82610ee6565b9050610c4c6040518060400160405280601081526020017f546f6b656e207068726173653a20257300000000000000000000000000000000815250826119f1565b6000610c5782610755565b9050610c986040518060400160405280600d81526020017f546f6b656e205356473a20257300000000000000000000000000000000000000815250826119f1565b6000610cc282604051602001610cae9190612f2e565b604051602081830303815290604052611a8d565b9050610d036040518060400160405280601581526020017f456e636f64656420746f6b656e205356473a2025730000000000000000000000815250826119f1565b6000610d2f8483604051602001610d1b92919061309b565b604051602081830303815290604052611a8d565b9050600081604051602001610d44919061312c565b6040516020818303038152906040529050610d936040518060400160405280601581526020017f0a2d2d2d2d2d2d2d2d2d2d2d2d2d2d2d2d2d2d2d2d00000000000000000000008152506111d4565b610d9c836111d4565b610dda6040518060400160405280601581526020017f2d2d2d2d2d2d2d2d2d2d2d2d2d2d2d2d2d2d2d2d0a00000000000000000000008152506111d4565b610de48682611c06565b610e07604051806060016040528060258152602001613a6b602591398733611c7a565b610e11600a611d19565b7febb98688741ffa4c7589bf325de30cf7becb63de567842e1ccdb6cb949fdc82c3387604051610e4292919061314e565b60405180910390a1505050505050565b6000600560008473ffffffffffffffffffffffffffffffffffffffff1673ffffffffffffffffffffffffffffffffffffffff16815260200190815260200160002060008373ffffffffffffffffffffffffffffffffffffffff1673ffffffffffffffffffffffffffffffffffffffff16815260200190815260200160002060009054906101000a900460ff16905092915050565b6060600060078054905083604051602001610f019190613198565b6040516020818303038152906040528051906020012060001c610f2491906131e2565b9050600060088054905084604051602001610f3f9190613198565b6040516020818303038152906040528051906020012060001c610f6291906131e2565b9050600060098054905085604051602001610f7d9190613198565b6040516020818303038152906040528051906020012060001c610fa091906131e2565b9050600060078481548110610fb857610fb7613213565b5b906000526020600020018054610fcd90612a01565b80601f0160208091040260200160405190810160405280929190818152602001828054610ff990612a01565b80156110465780601f1061101b57610100808354040283529160200191611046565b820191906000526020600020905b81548152906001019060200180831161102957829003601f168201915b5050505050905060006008848154811061106357611062613213565b5b90600052602060002001805461107890612a01565b80601f01602080910402602001604051908101604052809291908181526020018280546110a490612a01565b80156110f15780601f106110c6576101008083540402835291602001916110f1565b820191906000526020600020905b8154815290600101906020018083116110d457829003601f168201915b5050505050905060006009848154811061110e5761110d613213565b5b90600052602060002001805461112390612a01565b80601f016020809104026020016040519081016040528092919081815260200182805461114f90612a01565b801561119c5780601f106111715761010080835404028352916020019161119c565b820191906000526020600020905b81548152906001019060200180831161117f57829003601f168201915b505050505090508282826040516020016111b89392919061328e565b6040516020818303038152906040529650505050505050919050565b61126a816040516024016111e8919061248d565b6040516020818303038152906040527f41304fac000000000000000000000000000000000000000000000000000000007bffffffffffffffffffffffffffffffffffffffffffffffffffffffff19166020820180517bffffffffffffffffffffffffffffffffffffffffffffffffffffffff8381831617835250505050611d2f565b50565b60007f01ffc9a7000000000000000000000000000000000000000000000000000000007bffffffffffffffffffffffffffffffffffffffffffffffffffffffff1916827bffffffffffffffffffffffffffffffffffffffffffffffffffffffff1916149050919050565b60008073ffffffffffffffffffffffffffffffffffffffff166002600084815260200190815260200160002060009054906101000a900473ffffffffffffffffffffffffffffffffffffffff1673ffffffffffffffffffffffffffffffffffffffff1614159050919050565b600033905090565b816004600083815260200190815260200160002060006101000a81548173ffffffffffffffffffffffffffffffffffffffff021916908373ffffffffffffffffffffffffffffffffffffffff160217905550808273ffffffffffffffffffffffffffffffffffffffff166113be836107de565b73ffffffffffffffffffffffffffffffffffffffff167f8c5be1e5ebec7d5bd14f71427d1e84f3dd0314c0f7b2291e5b200ac8c7c3b92560405160405180910390a45050565b600061140f826112d7565b61144e576040517f08c379a000000000000000000000000000000000000000000000000000000000815260040161144590613347565b60405180910390fd5b6000611459836107de565b90508073ffffffffffffffffffffffffffffffffffffffff168473ffffffffffffffffffffffffffffffffffffffff1614806114c857508373ffffffffffffffffffffffffffffffffffffffff166114b08461051d565b73ffffffffffffffffffffffffffffffffffffffff16145b806114d957506114d88185610e52565b5b91505092915050565b8273ffffffffffffffffffffffffffffffffffffffff16611502826107de565b73ffffffffffffffffffffffffffffffffffffffff1614611558576040517f08c379a000000000000000000000000000000000000000000000000000000000815260040161154f906133d9565b60405180910390fd5b600073ffffffffffffffffffffffffffffffffffffffff168273ffffffffffffffffffffffffffffffffffffffff1614156115c8576040517f08c379a00000000000000000000000000000000000000000000000000000000081526004016115bf9061346b565b60405180910390fd5b6115d3838383611d58565b6115de60008261134b565b6001600360008573ffffffffffffffffffffffffffffffffffffffff1673ffffffffffffffffffffffffffffffffffffffff168152602001908152602001600020600082825461162e91906134ba565b925050819055506001600360008473ffffffffffffffffffffffffffffffffffffffff1673ffffffffffffffffffffffffffffffffffffffff168152602001908152602001600020600082825461168591906134ee565b92505081905550816002600083815260200190815260200160002060006101000a81548173ffffffffffffffffffffffffffffffffffffffff021916908373ffffffffffffffffffffffffffffffffffffffff160217905550808273ffffffffffffffffffffffffffffffffffffffff168473ffffffffffffffffffffffffffffffffffffffff167fddf252ad1be2c89b69c2b068fc378daa952ba7f163c4a11628f55a4df523b3ef60405160405180910390a4505050565b600081600001549050919050565b8173ffffffffffffffffffffffffffffffffffffffff168373ffffffffffffffffffffffffffffffffffffffff1614156117bb576040517f08c379a00000000000000000000000000000000000000000000000000000000081526004016117b290613590565b60405180910390fd5b80600560008573ffffffffffffffffffffffffffffffffffffffff1673ffffffffffffffffffffffffffffffffffffffff16815260200190815260200160002060008473ffffffffffffffffffffffffffffffffffffffff1673ffffffffffffffffffffffffffffffffffffffff16815260200190815260200160002060006101000a81548160ff0219169083151502179055508173ffffffffffffffffffffffffffffffffffffffff168373ffffffffffffffffffffffffffffffffffffffff167f17307eab39ab6107e8899845ad3d59bd9653f200f220920489ca2b5937696c31836040516118ac91906123d9565b60405180910390a3505050565b6118c48484846114e2565b6118d084848484611d5d565b61190f576040517f08c379a000000000000000000000000000000000000000000000000000000000815260040161190690613622565b60405180910390fd5b50505050565b606060405180602001604052806000815250905090565b6060611937826112d7565b611976576040517f08c379a000000000000000000000000000000000000000000000000000000000815260040161196d906136b4565b60405180910390fd5b6000611980611915565b905060008151116119a057604051806020016040528060008152506119cb565b806119aa84611ee5565b6040516020016119bb929190612e9e565b6040516020818303038152906040525b915050919050565b6119ed828260405180602001604052806000815250612046565b5050565b611a898282604051602401611a079291906136d4565b6040516020818303038152906040527f4b5c4277000000000000000000000000000000000000000000000000000000007bffffffffffffffffffffffffffffffffffffffffffffffffffffffff19166020820180517bffffffffffffffffffffffffffffffffffffffffffffffffffffffff8381831617835250505050611d2f565b5050565b6060600082511415611ab057604051806020016040528060008152509050611c01565b6000604051806060016040528060408152602001613a906040913990506000600360028551611adf91906134ee565b611ae9919061370b565b6004611af5919061373c565b90506000602082611b0691906134ee565b67ffffffffffffffff811115611b1f57611b1e612661565b5b6040519080825280601f01601f191660200182016040528015611b515781602001600182028036833780820191505090505b509050818152600183018586518101602084015b81831015611bc0576003830192508251603f8160121c168501518253600182019150603f81600c1c168501518253600182019150603f8160061c168501518253600182019150603f8116850151825360018201915050611b65565b600389510660018114611bda5760028114611bea57611bf5565b613d3d60f01b6002830352611bf5565b603d60f81b60018303525b50505050508093505050505b919050565b611c0f826112d7565b611c4e576040517f08c379a0000000000000000000000000000000000000000000000000000000008152600401611c4590613808565b60405180910390fd5b80600660008481526020019081526020016000209080519060200190611c75929190612282565b505050565b611d14838383604051602401611c9293929190613828565b6040516020818303038152906040527fe3849f79000000000000000000000000000000000000000000000000000000007bffffffffffffffffffffffffffffffffffffffffffffffffffffffff19166020820180517bffffffffffffffffffffffffffffffffffffffffffffffffffffffff8381831617835250505050611d2f565b505050565b6001816000016000828254019250508190555050565b60008151905060006a636f6e736f6c652e6c6f679050602083016000808483855afa5050505050565b505050565b6000611d7e8473ffffffffffffffffffffffffffffffffffffffff166120a1565b15611ed8578373ffffffffffffffffffffffffffffffffffffffff1663150b7a02611da7611343565b8786866040518563ffffffff1660e01b8152600401611dc994939291906138bb565b6020604051808303816000875af1925050508015611e0557506040513d601f19601f82011682018060405250810190611e02919061391c565b60015b611e88573d8060008114611e35576040519150601f19603f3d011682016040523d82523d6000602084013e611e3a565b606091505b50600081511415611e80576040517f08c379a0000000000000000000000000000000000000000000000000000000008152600401611e7790613622565b60405180910390fd5b805181602001fd5b63150b7a0260e01b7bffffffffffffffffffffffffffffffffffffffffffffffffffffffff1916817bffffffffffffffffffffffffffffffffffffffffffffffffffffffff191614915050611edd565b600190505b949350505050565b60606000821415611f2d576040518060400160405280600181526020017f30000000000000000000000000000000000000000000000000000000000000008152509050612041565b600082905060005b60008214611f5f578080611f4890613949565b915050600a82611f58919061370b565b9150611f35565b60008167ffffffffffffffff811115611f7b57611f7a612661565b5b6040519080825280601f01601f191660200182016040528015611fad5781602001600182028036833780820191505090505b5090505b6000851461203a57600182611fc691906134ba565b9150600a85611fd591906131e2565b6030611fe191906134ee565b60f81b818381518110611ff757611ff6613213565b5b60200101907effffffffffffffffffffffffffffffffffffffffffffffffffffffffffffff1916908160001a905350600a85612033919061370b565b9450611fb1565b8093505050505b919050565b61205083836120b4565b61205d6000848484611d5d565b61209c576040517f08c379a000000000000000000000000000000000000000000000000000000000815260040161209390613622565b60405180910390fd5b505050565b600080823b905060008111915050919050565b600073ffffffffffffffffffffffffffffffffffffffff168273ffffffffffffffffffffffffffffffffffffffff161415612124576040517f08c379a000000000000000000000000000000000000000000000000000000000815260040161211b906139de565b60405180910390fd5b61212d816112d7565b1561216d576040517f08c379a000000000000000000000000000000000000000000000000000000000815260040161216490613a4a565b60405180910390fd5b61217960008383611d58565b6001600360008473ffffffffffffffffffffffffffffffffffffffff1673ffffffffffffffffffffffffffffffffffffffff16815260200190815260200160002060008282546121c991906134ee565b92505081905550816002600083815260200190815260200160002060006101000a81548173ffffffffffffffffffffffffffffffffffffffff021916908373ffffffffffffffffffffffffffffffffffffffff160217905550808273ffffffffffffffffffffffffffffffffffffffff16600073ffffffffffffffffffffffffffffffffffffffff167fddf252ad1be2c89b69c2b068fc378daa952ba7f163c4a11628f55a4df523b3ef60405160405180910390a45050565b82805461228e90612a01565b90600052602060002090601f0160209004810192826122b057600085556122f7565b82601f106122c957805160ff19168380011785556122f7565b828001600101855582156122f7579182015b828111156122f65782518255916020019190600101906122db565b5b5090506123049190612308565b5090565b5b80821115612321576000816000905550600101612309565b5090565b6000604051905090565b600080fd5b600080fd5b60007fffffffff0000000000000000000000000000000000000000000000000000000082169050919050565b61236e81612339565b811461237957600080fd5b50565b60008135905061238b81612365565b92915050565b6000602082840312156123a7576123a661232f565b5b60006123b58482850161237c565b91505092915050565b60008115159050919050565b6123d3816123be565b82525050565b60006020820190506123ee60008301846123ca565b92915050565b600081519050919050565b600082825260208201905092915050565b60005b8381101561242e578082015181840152602081019050612413565b8381111561243d576000848401525b50505050565b6000601f19601f8301169050919050565b600061245f826123f4565b61246981856123ff565b9350612479818560208601612410565b61248281612443565b840191505092915050565b600060208201905081810360008301526124a78184612454565b905092915050565b6000819050919050565b6124c2816124af565b81146124cd57600080fd5b50565b6000813590506124df816124b9565b92915050565b6000602082840312156124fb576124fa61232f565b5b6000612509848285016124d0565b91505092915050565b600073ffffffffffffffffffffffffffffffffffffffff82169050919050565b600061253d82612512565b9050919050565b61254d81612532565b82525050565b60006020820190506125686000830184612544565b92915050565b61257781612532565b811461258257600080fd5b50565b6000813590506125948161256e565b92915050565b600080604083850312156125b1576125b061232f565b5b60006125bf85828601612585565b92505060206125d0858286016124d0565b9150509250929050565b6000806000606084860312156125f3576125f261232f565b5b600061260186828701612585565b935050602061261286828701612585565b9250506040612623868287016124d0565b9150509250925092565b612636816124af565b82525050565b6000602082019050612651600083018461262d565b92915050565b600080fd5b600080fd5b7f4e487b7100000000000000000000000000000000000000000000000000000000600052604160045260246000fd5b61269982612443565b810181811067ffffffffffffffff821117156126b8576126b7612661565b5b80604052505050565b60006126cb612325565b90506126d78282612690565b919050565b600067ffffffffffffffff8211156126f7576126f6612661565b5b61270082612443565b9050602081019050919050565b82818337600083830152505050565b600061272f61272a846126dc565b6126c1565b90508281526020810184848401111561274b5761274a61265c565b5b61275684828561270d565b509392505050565b600082601f83011261277357612772612657565b5b813561278384826020860161271c565b91505092915050565b6000602082840312156127a2576127a161232f565b5b600082013567ffffffffffffffff8111156127c0576127bf612334565b5b6127cc8482850161275e565b91505092915050565b6000602082840312156127eb576127ea61232f565b5b60006127f984828501612585565b91505092915050565b61280b816123be565b811461281657600080fd5b50565b60008135905061282881612802565b92915050565b600080604083850312156128455761284461232f565b5b600061285385828601612585565b925050602061286485828601612819565b9150509250929050565b600067ffffffffffffffff82111561288957612888612661565b5b61289282612443565b9050602081019050919050565b60006128b26128ad8461286e565b6126c1565b9050828152602081018484840111156128ce576128cd61265c565b5b6128d984828561270d565b509392505050565b600082601f8301126128f6576128f5612657565b5b813561290684826020860161289f565b91505092915050565b600080600080608085870312156129295761292861232f565b5b600061293787828801612585565b945050602061294887828801612585565b9350506040612959878288016124d0565b925050606085013567ffffffffffffffff81111561297a57612979612334565b5b612986878288016128e1565b91505092959194509250565b600080604083850312156129a9576129a861232f565b5b60006129b785828601612585565b92505060206129c885828601612585565b9150509250929050565b7f4e487b7100000000000000000000000000000000000000000000000000000000600052602260045260246000fd5b60006002820490506001821680612a1957607f821691505b60208210811415612a2d57612a2c6129d2565b5b50919050565b7f4552433732313a20617070726f76656420717565727920666f72206e6f6e657860008201527f697374656e7420746f6b656e0000000000000000000000000000000000000000602082015250565b6000612a8f602c836123ff565b9150612a9a82612a33565b604082019050919050565b60006020820190508181036000830152612abe81612a82565b9050919050565b7f4552433732313a20617070726f76616c20746f2063757272656e74206f776e6560008201527f7200000000000000000000000000000000000000000000000000000000000000602082015250565b6000612b216021836123ff565b9150612b2c82612ac5565b604082019050919050565b60006020820190508181036000830152612b5081612b14565b9050919050565b7f4552433732313a20617070726f76652063616c6c6572206973206e6f74206f7760008201527f6e6572206e6f7220617070726f76656420666f7220616c6c0000000000000000602082015250565b6000612bb36038836123ff565b9150612bbe82612b57565b604082019050919050565b60006020820190508181036000830152612be281612ba6565b9050919050565b7f4552433732313a207472616e736665722063616c6c6572206973206e6f74206f60008201527f776e6572206e6f7220617070726f766564000000000000000000000000000000602082015250565b6000612c456031836123ff565b9150612c5082612be9565b604082019050919050565b60006020820190508181036000830152612c7481612c38565b9050919050565b600081905092915050565b6000612c91826123f4565b612c9b8185612c7b565b9350612cab818560208601612410565b80840191505092915050565b6000612cc38286612c86565b9150612ccf8285612c86565b9150612cdb8284612c86565b9150819050949350505050565b7f4552433732313a206f776e657220717565727920666f72206e6f6e657869737460008201527f656e7420746f6b656e0000000000000000000000000000000000000000000000602082015250565b6000612d446029836123ff565b9150612d4f82612ce8565b604082019050919050565b60006020820190508181036000830152612d7381612d37565b9050919050565b7f4552433732313a2062616c616e636520717565727920666f7220746865207a6560008201527f726f206164647265737300000000000000000000000000000000000000000000602082015250565b6000612dd6602a836123ff565b9150612de182612d7a565b604082019050919050565b60006020820190508181036000830152612e0581612dc9565b9050919050565b7f45524337323155524953746f726167653a2055524920717565727920666f722060008201527f6e6f6e6578697374656e7420746f6b656e000000000000000000000000000000602082015250565b6000612e686031836123ff565b9150612e7382612e0c565b604082019050919050565b60006020820190508181036000830152612e9781612e5b565b9050919050565b6000612eaa8285612c86565b9150612eb68284612c86565b91508190509392505050565b7f4d617820746f6b656e20737570706c7920726561636865640000000000000000600082015250565b6000612ef86018836123ff565b9150612f0382612ec2565b602082019050919050565b60006020820190508181036000830152612f2781612eeb565b9050919050565b6000612f3a8284612c86565b915081905092915050565b7f7b226e616d65223a202200000000000000000000000000000000000000000000600082015250565b6000612f7b600a83612c7b565b9150612f8682612f45565b600a82019050919050565b7f222c20226465736372697074696f6e223a20224120686967686c79206163636c60008201527f61696d656420636f6c6c656374696f6e206f6620737175617265732e222c202260208201527f696d616765223a2022646174613a696d6167652f7376672b786d6c3b6261736560408201527f36342c0000000000000000000000000000000000000000000000000000000000606082015250565b6000613039606383612c7b565b915061304482612f91565b606382019050919050565b7f227d000000000000000000000000000000000000000000000000000000000000600082015250565b6000613085600283612c7b565b91506130908261304f565b600282019050919050565b60006130a682612f6e565b91506130b28285612c86565b91506130bd8261302c565b91506130c98284612c86565b91506130d482613078565b91508190509392505050565b7f646174613a6170706c69636174696f6e2f6a736f6e3b6261736536342c000000600082015250565b6000613116601d83612c7b565b9150613121826130e0565b601d82019050919050565b600061313782613109565b91506131438284612c86565b915081905092915050565b60006040820190506131636000830185612544565b613170602083018461262d565b9392505050565b6000819050919050565b61319261318d826124af565b613177565b82525050565b60006131a48284613181565b60208201915081905092915050565b7f4e487b7100000000000000000000000000000000000000000000000000000000600052601260045260246000fd5b60006131ed826124af565b91506131f8836124af565b925082613208576132076131b3565b5b828206905092915050565b7f4e487b7100000000000000000000000000000000000000000000000000000000600052603260045260246000fd5b7f2000000000000000000000000000000000000000000000000000000000000000600082015250565b6000613278600183612c7b565b915061328382613242565b600182019050919050565b600061329a8286612c86565b91506132a58261326b565b91506132b18285612c86565b91506132bc8261326b565b91506132c88284612c86565b9150819050949350505050565b7f4552433732313a206f70657261746f7220717565727920666f72206e6f6e657860008201527f697374656e7420746f6b656e0000000000000000000000000000000000000000602082015250565b6000613331602c836123ff565b915061333c826132d5565b604082019050919050565b6000602082019050818103600083015261336081613324565b9050919050565b7f4552433732313a207472616e73666572206f6620746f6b656e2074686174206960008201527f73206e6f74206f776e0000000000000000000000000000000000000000000000602082015250565b60006133c36029836123ff565b91506133ce82613367565b604082019050919050565b600060208201905081810360008301526133f2816133b6565b9050919050565b7f4552433732313a207472616e7366657220746f20746865207a65726f2061646460008201527f7265737300000000000000000000000000000000000000000000000000000000602082015250565b60006134556024836123ff565b9150613460826133f9565b604082019050919050565b6000602082019050818103600083015261348481613448565b9050919050565b7f4e487b7100000000000000000000000000000000000000000000000000000000600052601160045260246000fd5b60006134c5826124af565b91506134d0836124af565b9250828210156134e3576134e261348b565b5b828203905092915050565b60006134f9826124af565b9150613504836124af565b9250827fffffffffffffffffffffffffffffffffffffffffffffffffffffffffffffffff038211156135395761353861348b565b5b828201905092915050565b7f4552433732313a20617070726f766520746f2063616c6c657200000000000000600082015250565b600061357a6019836123ff565b915061358582613544565b602082019050919050565b600060208201905081810360008301526135a98161356d565b9050919050565b7f4552433732313a207472616e7366657220746f206e6f6e20455243373231526560008201527f63656976657220696d706c656d656e7465720000000000000000000000000000602082015250565b600061360c6032836123ff565b9150613617826135b0565b604082019050919050565b6000602082019050818103600083015261363b816135ff565b9050919050565b7f4552433732314d657461646174613a2055524920717565727920666f72206e6f60008201527f6e6578697374656e7420746f6b656e0000000000000000000000000000000000602082015250565b600061369e602f836123ff565b91506136a982613642565b604082019050919050565b600060208201905081810360008301526136cd81613691565b9050919050565b600060408201905081810360008301526136ee8185612454565b905081810360208301526137028184612454565b90509392505050565b6000613716826124af565b9150613721836124af565b925082613731576137306131b3565b5b828204905092915050565b6000613747826124af565b9150613752836124af565b9250817fffffffffffffffffffffffffffffffffffffffffffffffffffffffffffffffff048311821515161561378b5761378a61348b565b5b828202905092915050565b7f45524337323155524953746f726167653a2055524920736574206f66206e6f6e60008201527f6578697374656e7420746f6b656e000000000000000000000000000000000000602082015250565b60006137f2602e836123ff565b91506137fd82613796565b604082019050919050565b60006020820190508181036000830152613821816137e5565b9050919050565b600060608201905081810360008301526138428186612454565b9050613851602083018561262d565b61385e6040830184612544565b949350505050565b600081519050919050565b600082825260208201905092915050565b600061388d82613866565b6138978185613871565b93506138a7818560208601612410565b6138b081612443565b840191505092915050565b60006080820190506138d06000830187612544565b6138dd6020830186612544565b6138ea604083018561262d565b81810360608301526138fc8184613882565b905095945050505050565b60008151905061391681612365565b92915050565b6000602082840312156139325761393161232f565b5b600061394084828501613907565b91505092915050565b6000613954826124af565b91507fffffffffffffffffffffffffffffffffffffffffffffffffffffffffffffffff8214156139875761398661348b565b5b600182019050919050565b7f4552433732313a206d696e7420746f20746865207a65726f2061646472657373600082015250565b60006139c86020836123ff565b91506139d382613992565b602082019050919050565b600060208201905081810360008301526139f7816139bb565b9050919050565b7f4552433732313a20746f6b656e20616c7265616479206d696e74656400000000600082015250565b6000613a34601c836123ff565b9150613a3f826139fe565b602082019050919050565b60006020820190508181036000830152613a6381613a27565b905091905056fe416e204e465420772f20494420257320686173206265656e206d696e74656420746f2025734142434445464748494a4b4c4d4e4f505152535455565758595a6162636465666768696a6b6c6d6e6f707172737475767778797a303132333435363738392b2f3c73766720786d6c6e733d22687474703a2f2f7777772e77332e6f72672f323030302f73766722207072657365727665417370656374526174696f3d22784d696e594d696e206d656574222076696577426f783d223020302033353020333530223e3c7374796c653e2e62617365207b2066696c6c3a2077686974653b20666f6e742d66616d696c793a2073657269663b20666f6e742d73697a653a20313470783b207d3c2f7374796c653e3c726563742077696474683d223130302522206865696768743d2231303025222066696c6c3d22626c61636b22202f3e3c7465787420783d223530252220793d223530252220636c6173733d22626173652220646f6d696e616e742d626173656c696e653d226d6964646c652220746578742d616e63686f723d226d6964646c65223ea2646970667358221220bd42fc6b9e47a4c689e4719593376a260ca91247b9b7b27b4fca6681bfcd95df64736f6c634300080a0033",
  "linkReferences": {},
  "deployedLinkReferences": {}
}